:020000041000EA
:1000000000B5324B212058609868022188439860DF
:10001000D860186158612E4B002199600221596106
:100020000121F02299502B49196001219960352056
:1000300000F044F80222904214D00621196600F024
:1000400034F8196E01211966002018661A6600F04E
:100050002CF8196E196E196E052000F02FF8012189
:100060000842F9D1002199601B49196000215960AB
:100070001A491B48016001219960EB211966A021F2
:10008000196600F012F800219960164914480160C1
:100090000121996001BC002800D000471248134993
:1000A000086003C880F30888084703B5996A0420EC
:1000B0000142FBD001200142F8D103BD02B5186610
:1000C0001866FFF7F2FF186E186E02BD00000240BE
:1000D000000000180000070000035F00212200005C
:1000E000F4000018222000A00001001008ED00E03C
:1000F00000000000000000000000000074B24E7A12
:1001000000200420F7010010C3010010C5010010F9
:10011000C1010010C1010010C1010010C101001097
:10012000C1010010C1010010C1010010C701001081
:10013000C1010010C1010010C9010010CB01001065
:10014000CD010010CD010010CD010010CD01001037
:10015000CD010010CD010010CD010010CD01001027
:10016000CD010010CD010010CD010010CD01001017
:10017000CD010010CD010010CD010010CD01001007
:10018000CD010010CD010010CD010010CD010010F7
:10019000CD010010CD010010CD010010CD010010E7
:1001A000CD010010CD010010CD010010CD010010D7
:1001B000CD010010CD010010CD010010CD010010C7
:1001C00000BE00BE00BE00BE00BE00BE00F04BF888
:1001D000103800BEF2EB8871C06B0010EC6B0010A1
:1001E0003402001090A31AE700202149086006C8D5
:1001F00081F3088810471F48006800282FD10DA4FC
:100200000ECC002902D000F012F8F9E71A491B4A77
:10021000002000E001C19142FCD1194988471949E9
:1002200088471949884700BEFDE701C901C29A42C3
:10023000FBD37047EC6B0010C0000020A808002022
:10024000D47300100000042000000420D4730010B8
:1002500000100420001004200000000070470B482C
:1002600003F040FB0047EFF30580C0B27047000089
:1002700008ED00E0000000D0A8080020C010002019
:10028000B5220010410500107122001057560000E1
:1002900006005250ABB36053506600100600525037
:1002A000861C030260660010060052505422A29D74
:1002B0006C66001005005250DE65F468D4730010BF
:1002C000F8B5C04610B5064C2378002B07D1054B76
:1002D000002B02D0044800E000BF0123237010BDB2
:1002E000A80900200000000090520010044B10B537
:1002F000002B03D00349044800E000BF10BDC046F6
:1003000000000000AC0900209052001070B50400FD
:100310000D00012805D0002C02D1074B9D4207D0CB
:1003200070BD054B9942F6D1044804F045FEF2E752
:10033000024804F046FEF3E7FFFF0000900D0020A6
:1003400078231A000240034205D0782A01D0002009
:1003500002E0012000E0012070470000F0B5CE4629
:10036000474680B587B0814600240023984609E0BF
:100370001D4B1E4A3F211E4801F07EFF43460A2BBB
:1003800026D801347F2C2CDCE5B22800FFF7D8FFFB
:100390000028F3D101F082FB02000B1EE8DB154EB2
:1003A000002792197B4102920393012300931722A5
:1003B0006A442900104800F0A8FB40B20028DDDDA7
:1003C000434601334A4641465554DBB29846D5E789
:1003D0000A4804F0F1FA0A2007B0C0BCB946B0469A
:1003E000F0BD4046F8E7C04690520010AC520010F5
:1003F000E4520010A086010098030020545300101E
:10040000F8B50D0014001E000A4F0100380004F07A
:100410003FFC2900380004F031FD002C04D03200EC
:100420002100044804F06AFD0121024804F05EFC4A
:10043000F8BDC046D00A002010B50A000023010014
:10044000274804F0BBFC1DE0264B274AD121274852
:1004500001F012FF264B244AD221244801F00CFF60
:10046000204B244A2C39214801F006FF204B214A19
:10047000E0211E4801F000FF01214942C9B21E4897
:1004800004F0A5FD164B1B7A002BDDD0144B5B7AD4
:10049000FF2BDFD1124B852252009A5C0C21FF31D9
:1004A0005B5C9A4218D00E4B1B7A002BD8D00C4BB9
:1004B0005B7AFF2BDAD10A4B0C22FF329A5C852142
:1004C00049005B5C9A42D7D2054B501C0C21FF318E
:1004D00058549B18997AD1E7074804F074FD10BD71
:1004E000D00A00207453001088530010AC53001041
:1004F000F05300100C540010900D002030B599B04E
:1005000004000D005922074901A804F043F901AB8A
:100510002A000549200003F0B9F9200004F058FE34
:1005200019B030BD285400102054001010B501003F
:10053000024804F073FA002010BDC0468454001035
:10054000F0B5C64600B5C0B004F074FA04F076FD0C
:1005500004F0C7FDFA20C00001F028FA374804F083
:1005600073FB374804F028FA364804F025FA364879
:10057000FFF7F4FE80460100344804F04FFA0024EF
:10058000444559D2304B1A5D2100314804F046FAF7
:100590000134F5E704F002FE632103F0CFF9C9B29C
:1005A0006846FFF7ABFF050069462A4804F036FAB3
:1005B000254B185D2B006A460121FFF721FF01340E
:1005C000444533D2204D285D002300220021FFF74F
:1005D00017FF285D8021FFF72FFF1F4F380004F021
:1005E0000DFD0500380004F009FD0600380004F098
:1005F0001BFD302DCED0302ECCD0322D01D0322E5E
:10060000DDD1114D285D002300220221FFF7F8FE05
:10061000285D8021FFF710FF0F4D280004F0D2FC69
:10062000FFF784FF280004F0FFFCC8E7FA208000F1
:1006300001F0BCF904F044FD0024C1E7D00A002019
:1006400090540010A0540010580D0020B454001015
:10065000D0540010F0540010900D002010B5024945
:100660000120FFF753FE10BDFFFF000070B505002D
:100670001E4B984202D01E4B984229D11C4BEB1ABC
:100680005A4253415A00D21892001A495258AA426B
:1006900024D118495A00D418A400002060500A1927
:1006A0005060107217331C000021180000F018FB76
:1006B0000F4B9D4218D01049200000F04BFB2B68D7
:1006C0000E4A1A6300220021280000F0DBF970BDF9
:1006D0000B4B0C4A5A210C4801F0CEFD0B4B094A3A
:1006E0005E21094801F0C8FD0949E5E790030020B3
:1006F00098030020680D002041010020FF08000041
:10070000785500100056001094550010EC5500105C
:1007100051010020F0B5DE4657464E464546E0B54D
:1007200085B0060010001C0002930EAB1A780392ED
:100730000F9D109F33680022DA6633685960336872
:100740000132DA66A246002398469B4600242BE03D
:100750003279002A31D001222FE00399002901D0FB
:1007600000212EE001212CE03800A84703000443BB
:10077000E4B2002B06D13268526BD20602D4002DAF
:10078000F2D1F6E7002B09D13268802151588B460F
:1007900000291FD1002C2FD1C1451ED0002C33D1F0
:1007A00001229446E0440198D0452DDA029A013A9C
:1007B00091464246002ACBD000229202C145CCD0BD
:1007C000002149020A43411C01910078316802432B
:1007D0000A61D4E7526D01240EE0039A002ADDD1AC
:1007E0000AE03800A84703000443E4B2002B06D116
:1007F0003268526B920502D4002DF2D1F6E7002B3D
:10080000CCD13268126EC9E7002C09D0002B15D16B
:100810005B46002B16D0DB0718D45B461B0709D5B7
:10082000039B3371404605B0F0BCBB46B246A946B7
:10083000A046F0BD02235B429846F1E701235B42EC
:100840009846EDE702235B429846E9E702235B42C4
:100850009846E5E7F0B5DE4657464E464546E0B5D4
:1008600083B0050091469A460CAB1B7801930D9E10
:100870000E9F03680022DA6603685960036801323C
:10088000DA66D3460023984600242AE02979002915
:1008900033D0012131E00198002801D0002030E060
:1008A00001202EE03800B04703000443E4B2002CDE
:1008B0000DD12A68926F002A09D12A6880215158E7
:1008C000546D621E9441E4B2002EEBD1EFE7002C90
:1008D0001ED12A68126949460A7001229446E044F2
:1008E000E144D84514DA5246541E2A68516F102943
:1008F000FBD041460029C9D0002189024445CAD015
:100900000020400208438021490001431161D4E7DF
:10091000002C04D0002B0CD001235B429846019B95
:100920002B71404603B0F0BCBB46B246A946A04678
:10093000F0BD02235B429846F1E70000F0B5D646D1
:100940004F464646C0B505000C00052001F048FEA4
:10095000060060088019210003F018F80700430022
:10096000994681440521484603F010F880463B1A19
:100970009A46284B9C4224D870008019264903F0DF
:1009800005F8441C4346023BA34221D32B680022B6
:10099000DA6629680A680423534006221A40802335
:1009A0005B010B431A602B685246DA612B684246A2
:1009B0001A624B464F2B11D95021484602F0E6FFF0
:1009C0000DE070008019154902F0E0FF441CD9E7E2
:1009D000134B144A5F21144801F04EFC0120A02360
:1009E0002A68D0502A6811007C31D06F444024041A
:1009F000240C80235B010B431C602B680122DA6608
:100A00003900300002F0C2FFE0BCBA46B146A84649
:100A1000F0BDC0463F420F008096980040787D01AF
:100A2000145600109C5600103456001010B5114B8F
:100A300098421CD01022104B1A60104B1A60104BB9
:100A40009B6814009C43231EF9D104710268D4668C
:100A500002686624FF3414600268D36302689363FB
:100A6000883303220468E250FFF768FF10BD0822B4
:100A7000E1E7C0469003002000E0004000F00040A5
:100A800000C0004010B503680024DC66002910D0C7
:100A90000468216880239B004B400B490B40802158
:100AA000490121430B6003689A6003680122DA66FA
:100AB00010BD01680B6841225340034A1340802255
:100AC00052010A431360F0E741020000F0B5CE4640
:100AD000474680B589B08146884616001F0010AB96
:100AE0001C7804AD129A139B280000F07FFF02953A
:100AF000019000943B00320041464846FFF70AFE51
:100B000009B0C0BCB946B046F0BDF0B5CE464746C8
:100B100080B589B08146884616001F0010AB1C784E
:100B200004AD129A139B280000F060FF029501901B
:100B300000943B00320041464846FFF78BFE09B067
:100B4000C0BCB946B046F0BDEFF3108072B6034B9F
:100B50001B68002BFBD0BFF35F8F70472C0100D0C8
:100B6000BFF35F8F024B00221A6080F3108870473A
:100B70002C0100D0F8B506000C001500FFF7E4FFCB
:100B8000E308F718F15C07222240012393400B424F
:100B900005D1DBB20B433B70FFF7E2FFF8BD21004C
:100BA000280001F003FC0000034B1B6802201840E2
:100BB000431E9841C0B2704700C00640002307E0C2
:100BC000054A9A189200BFF35F8F0021116001332C
:100BD0001F2BF5D97047C04640000034054A1078F5
:100BE000431CDBB21370172B02D9130010221A70AA
:100BF0007047C046A0030020074B9B681030800060
:100C00001950BFF35F8FBFF35F8F044B0021196052
:100C100082F310887047C04600ED00E0240100D048
:100C200010B5091A081F0A4B9C466144094A9142B3
:100C300008D8C30706D440104005400D064B1843A2
:100C400080B210BD054B064A9921064801F014FBFD
:100C5000FC070000FE0F000000E0FFFFB056001090
:100C60001C590010E056001010B5091A04394C0840
:100C7000090B08D14905490D064A11430180064B6D
:100C80002343438010BD054B054AA121054801F0CF
:100C9000F3FAC04600F0FFFF00F8FFFF48570010CE
:100CA000F0580010E056001001238340034A1068FA
:100CB0001840431E9841C0B27047C04600E100E0B2
:100CC000002904D0034B1860034B18607047034B96
:100CD0001860FBE780E200E000E100E080E100E076
:100CE00010B5012383401800FFF7EAFF10BD000094
:100CF000024B9B6810308000C058704700ED00E048
:100D000070B504000D00EFF3108672B60C4B1B6833
:100D1000002BFBD0BFF35F8F2000FFF7E9FF094BEB
:100D2000984201D0A84205D1320029002000FFF7E7
:100D300063FF70BD044B054A7C21054801F09CFA15
:100D4000240100D0CD010010585700103859001070
:100D5000E0560010F0B5CE46474680B583B0060099
:100D60000D00EFF3108872B6564B1B68002BFBD0BA
:100D7000BFF35F8F544B9A6834001034A300D758E8
:100D8000524B9F4207D0AF4200D199E00197504BA0
:100D9000FB1A2F2B09D9424639003000FFF72CFFF0
:100DA00003B0C0BCB946B046F0BD3000FFF77CFFD1
:100DB000814600213000FFF793FFBFF35F8FFFF7FD
:100DC00052FA002801D0844211D10123019C9C4396
:100DD0000022A368AB4212D00622A256002A0DDBE5
:100DE00053009B189B002200394CE418F1E72C219A
:100DF000384B394AFF31394801F03EFA2200AB4204
:100E000057D106256557002D39DB6B005B199A0019
:100E10002F4B9B189A68A260DA79E27106229A56E3
:100E2000A2719B795BB2002B10DABD200002A0807A
:100E30006B005B199B00264AD318294A11789971D7
:100E4000157049463000FFF74BFFA4E7201D6B00EB
:100E50005B199B001E4A9B181A1D9B88D90A1C29E6
:100E600007D15B055B15023359005118FFF7D8FE17
:100E7000DDE71C4B1C4AA721184801F0FDF90028AA
:100E800012D1002A0ED0FF239371184B9380144A7D
:100E90001378A371164B0E49641A644163431B0D0A
:100EA0001370CEE7094FF2E7201D1249FFF7DCFE71
:100EB000C7E76021104B084AFF31084801F0DCF910
:100EC000024F68E7240100D000ED00E0CD010010E2
:100ED000A40300206C58001008590010E0560010C0
:100EE000BE100020545800102859001000BDFFFF0C
:100EF000AAAA0000DE0300209058001070B504007C
:100F0000012606432D4BF31A2F2B28D8FFF7ABF9F8
:100F100000282BD0EFF3108C72B6294B1B68002BE6
:100F2000FBD0BFF35F8F274D22002449521A524154
:100F300055432D0D6DB2244B9B6880001B58B34266
:100F40001BD00022032A32D853009B189B001B4958
:100F5000CB189B795BB2AB421FD00132F2E7C221C2
:100F60001A4B1B4A49001B4801F086F988211A4B8D
:100F7000174AFF31174801F07FF9134B9B68174A56
:100F80001A50174B1A78A2711D70BFF35F8F0C4B6C
:100F900000221A608CF3108870BD08005300991865
:100FA00089004118FF268E710E4A8A80E9E7CC211C
:100FB0000D4B074A4900074801F05EF9A4030020E1
:100FC000240100D0AAAA000000ED00E0985800100B
:100FD000D4580010E0560010C0580010CD01001089
:100FE000BE10002000BDFFFFCC5800100022044BB3
:100FF00002E0044902C30132072AFAD97047C04609
:1010000000E400E080808080024B9C4661448900BF
:10101000016070474000003470B505000C00080006
:1010200000F030FD200000F015FE0849200000F01F
:1010300055FDFFF7D3FD064B9C4660448000686079
:101040002C75A400034BE55070BDC0465D13001025
:1010500040000034800D00200A4B1A68EFF3108125
:1010600072B61368002BFCD0BFF35F8F054B1B6873
:10107000BFF35F8F00221A6081F3108840BF002009
:1010800000217047A010002010B5002922D003686D
:101090001B7B99421ED8174B9C466144090183680B
:1010A0009C4661440C684968002A19D003681B7B80
:1010B0009A4215D883680F488446624412019A18F0
:1010C00010685368020001208B4201D80ED0002026
:1010D000C0B210BD084B094A3B21094801F0CCF8C9
:1010E000054B064A3B21064801F0C6F8A242EFD85C
:1010F000EDE7C046FFFFFF0FCC590010145C001055
:101100006859001010B500291ED0037B99421BD8E6
:101110004B005B18033B0468A4466344002919D0C4
:10112000002A1DD0914221D0002A25D0047BA24262
:1011300022D804685000801803382018817019786C
:1011400000291FD11A7010BD104B114A6821114897
:1011500001F092F8104B114A6F310E4801F08CF8F3
:101160000F4B0E4A70210B4801F086F80D4B0B4ACD
:101170007121084801F080F8044B054A68210548B0
:1011800001F07AF841701A70DDE7C046005A00108D
:10119000805C00101C5A0010905A00105C5C00101B
:1011A0009C5A0010A85A001070B506000D001400DB
:1011B000002914D0002A14D080687368984700284A
:1011C00006D0220029003000FFF79CFF280007E02E
:1011D0002A0021003000FFF795FF200000E01000FA
:1011E00070BD0800FCE70000F0B583B00500009278
:1011F00001930AAB1C780BAB1F78002C26D0036838
:101200005A7B944207D10123002B19D1002C3BD1EA
:10121000200003B0F0BD002C0CD01A7B944209D8FA
:101220001A6863001B19033BD3189B78002BEBD083
:101230000123E9E73E4B3F4A68213F4801F01CF893
:101240003E4B3F4A65213F4801F016F803689C7BFE
:10125000002CDBD012D01A7B94420FD862001219F6
:10126000033A19688C46624451789973002900D179
:10127000D9730023937053701370C7E72C4B2D4A1A
:1012800068212D4800F0F8FF002C3AD02B681B7B1A
:101290009C4236D82C4BE3181B01AA689446634441
:1012A000009A1A60019A5A60089A9A60099ADA605C
:1012B0002E68002C2BD030D0337B9C422DD863007D
:1012C0001B19033B32689446634400229A705A709B
:1012D0001A70717B22003000FFF766FF7073844242
:1012E00000D095E7287D009A019B00F03FFC061E88
:1012F00001D0002F17D00C9B002B00D188E71E7067
:1013000086E7124B124A3B210E4800F0B5FF114B05
:10131000114AA521084800F0AFFF054B054A682196
:10132000054800F0A9FF2868210000F047FEE2E729
:10133000005A0010805C00101C5A0010C05A0010A7
:101340008C5C001068590010FFFFFF0FCC59001093
:10135000145C001064590010705C0010F0B5DE469B
:1013600057464E464546E0B58BB00990002308939A
:101370008200B24BD658370032E0B14BB14A3F2120
:10138000B14800F079FFB14BB14A3B21B14800F0C0
:1013900073FFB14BB14A8C21AE4800F06DFFB04BEA
:1013A000AE4A9021AB4800F067FFA84BAD4A402100
:1013B000A84800F061FF2A686B68099800F0D6FB26
:1013C00000239A4698467B68BFF35F8F00221A601D
:1013D00086F310884346002B51D1002800D126E126
:1013E00000F05CFB02000B1EC7DB00200021069012
:1013F00007917868EFF3108672B601680029FCD077
:10140000BFF35F8F396888464C7B002C32D0BAD04E
:10141000097B8C42B7D8944965182D01B9688C4670
:10142000654428686968801A99410029C3DC01D1A4
:101430000028C0D10021404600F0B6FDA042A8D14E
:101440002A686B6806920793AB689846EB689A46E1
:101450004346002BA3D0002CA7D03B681B7B9C42AB
:10146000A3D8631EFA68D35C08931B021843386143
:101470000020A8E700239A4698460020A3E7089B8F
:101480001B022343994651461800C04705000E0031
:101490007A68EFF3108B72B6136859424B41D9B298
:1014A000002BF9D1BFF35F8F002E26DB002E52DD1B
:1014B0003B69002B53D04B4572D100F0EFFA02008C
:1014C0000B1E73DB0100180052197341984202D8B9
:1014D00004D1914202D901225242D317002B6BDB77
:1014E000002104910131039102945146019141463A
:1014F00000913800FFF778FE49E03B69002BD5D01A
:101500004B451CD1069A079B10001900521BB34192
:10151000994202D804D1904202D901225242D317F3
:10152000002B12DB002104910131039102945146FA
:101530000191414600913800FFF756FE27E04B4BE2
:10154000464A9F21434800F097FE3D4B3D4A3F21CC
:101550003D4800F091FE002E01D1002DA8D13A683F
:10156000002C45D0537B9C422CD1012100293FD136
:10157000D37B002B42D1D473002C52D03B681B7B11
:101580009C424ED8FA68013C135D01331355002389
:101590003B617A68BFF35F8F13608BF310881FE79E
:1015A000324B2E4AA2212B4800F066FE244B254ADE
:1015B0003F21254800F060FE214B224A3F2122486E
:1015C00000F05AFE002C0DD0137B9C420AD8630019
:1015D0001B19033B1068844663449B78002BC5D0DD
:1015E0000121C3E7224B234A6821234800F044FE2F
:1015F000224B234AF621204800F03EFE002B0AD061
:10160000117B8B4207D85900CB18033B11688C46DD
:1016100063445C70AFE7164B164A6821164800F029
:101620002BFE0A4B0F4A40210A4800F025FE0BB062
:10163000F0BCBB46B246A946A046F0BD800D0020D6
:1016400090520010E05B0010E4520010CC590010E2
:10165000145C001068590010E85A0010F85B001084
:10166000005B0010385C0010FFFFFF0F0C5B0010E8
:10167000005A0010805C00101C5A0010485B0010DB
:101680004C5C001010B50A4B5B68002B04D00A219B
:101690000848FFF7B9FC10BD054C2300064A10218D
:1016A000206800F0A1FB03212000FFF7B5FCEEE766
:1016B000EC030020A01000208910001010B5064B8C
:1016C0005B68002B01D0044810BD044B044A5C2128
:1016D000044800F0D1FDC046EC0300206C5B001014
:1016E000205C001068590010F0B5DE4657464E46A3
:1016F0004546E0B58BB0804616001F00149B9A4605
:10170000159B994616AB1B789B461F2302AA94464D
:10171000634400221A7032E0002809D04246126861
:10172000127B904204D8421E4146C9688A5C48E058
:10173000434B444A4021444800F09EFD0798002B4B
:1017400075D05B46002B72D04946D04704000D008F
:1017500003000B4300D171E0002946DB00F09EF945
:1017600006000F1E55DB36196F41B94202D804D16D
:10177000B04202D901267642F717002F4FDB4346CD
:101780005A68EFF3108472B6136859424B41D9B2CC
:101790000791002BF8D1BFF35F8F1F3302AA944645
:1017A000634404930023039302934B4601935346EF
:1017B000009332003B004046FFF716FD031EABD1FD
:1017C000020041464968BFF35F8F00250D6084F336
:1017D0001088002B29D01F2302A98C4663441B7854
:1017E000002BABD112021043A9E732003B00361B9D
:1017F000AF41BB4202D804D1B24202D9012676429F
:10180000F717002FBBDA114B114A3F21114800F0A6
:1018100033FD0E4B0E4A3F210E4800F02DFD0B4BC1
:101820000B4A3F210B4800F027FD012040420BB03E
:10183000F0BCBB46B246A946A046F0BD0798F6E705
:10184000CC590010385C00106859001090520010FC
:10185000E05B0010E4520010F0B587B006000F0006
:10186000FEF701FD00281FD106246442E517A419E4
:101870007D41BD4202D803D1B44201D900240025E4
:10188000002D14DB0494059500F008F902000B1EEE
:1018900013DBA41A9D41002D17DC14D03000390051
:1018A00000F008F907B0F0BD234800F07FFD234B9E
:1018B000234A3F21234800F0DFFC204B204A3F21F0
:1018C000204800F0D9FC002CE8D0FFF7F7FE0023F9
:1018D000029301931C4B0093049A059BFFF704FFAE
:1018E000002818DADAE7002300E00023002BD5D126
:1018F000164B1A68EFF3108172B61368002BFCD0F8
:10190000BFF35F8F114B1B68BFF35F8F00221A601C
:1019100081F3108820BF0499059A0D4B5B6A9A42A7
:10192000E3D80B48806A884203D29A42DBD0012375
:10193000DCE70123DAE7C046905B0010905200100C
:10194000E05B0010E452001059100010A0100020BD
:1019500000400540F8B504000D0000F09FF80200BB
:101960000B1E10DB20002900801859418B4202D841
:1019700004D1824202D901204042C117002908DB6C
:10198000FFF76AFFF8BD064B064A3F21064800F004
:1019900073FC034B034A3F21034800F06DFCC04633
:1019A00090520010E05B0010E452001010B5FA22D3
:1019B00092000023002102F02DFEFFF7CBFF10BDA7
:1019C000026843680849496A8B4209D80648806A18
:1019D000904207D28B4201D0012002E0002000E0BB
:1019E000002070470120FCE7004005400260436092
:1019F00000487047C119001070B5EFF305833F2010
:101A000018401038EFF3108C72B6194B1B68002B7E
:101A1000FBD0BFF35F8F012319008140154A51634A
:101A2000154A12781400C440234214D0114B5C6A4A
:101A30008300124D5B599C4206D38300104C1B5906
:101A40008A430D490A7007E00A4A031D9B00995812
:101A50009950002300E00023BFF35F8F044A002168
:101A600011608CF31088002B00D0984770BDC046E1
:101A7000280100D000400540BF100020A410002025
:101A8000DC0B002010B50100024A0348FFF772F892
:101A900010BDC046A45C0010BD100020044B5B6A62
:101AA000034A906A1900536A9942F9D17047C046B7
:101AB00000400540084B5B6A01E0074B5B6A8B42C4
:101AC000FBD301E0044B5B6A8B4203D1024B9B6A60
:101AD0008342F7D37047C0460040054070B504000C
:101AE0000D00EFF3108672B61B4B1B68002BFBD06A
:101AF000BFF35F8F002D1CD02000FFF7F9F8174BC4
:101B000083420BD019002000FFF7FAF801212000D2
:101B1000FFF7E6F80123A340114A1360A400114B1C
:101B2000E550BFF35F8F0C4B00221A6086F31088DC
:101B300070BDA2000B4B0021D1500122A2400A49E6
:101B40000B7893430B7005492000FFF703F9002140
:101B50002000FFF7C5F8E4E7280100D0F9190010CC
:101B600038600540DC0B0020BF100020F0B5DE46D9
:101B700000B584B00400150001921E000293FFF727
:101B80008DFF03958E4202D84ED185424CD9EFF39A
:101B9000108B72B6274B1B68002BFBD0BFF35F8FF7
:101BA000254A17780125A540EBB23B431370234B20
:101BB0005D63221D92000199D150A2002049029834
:101BC00050501B6A2B4212D11C4B1B6C2B4208D06D
:101BD0000020BFF35F8F174B00221A608BF3108831
:101BE00023E0184B184AC121184800F045FBFFF7C5
:101BF00055FF8E4214D802D1039B834210D80E4B5E
:101C00001B78BB420ED00D4B1D625D631F2004404C
:101C10000123A3400E4A1360074B1F701E38D8E7FC
:101C20000020D6E70120D4E7012004B080BCBB46E9
:101C3000F0BDC046280100D0BF1000200040054084
:101C4000A4100020C85C0010585D0010EC5C00106F
:101C500080E200E0EFF3108C72B60B4B1B68002B98
:101C6000FBD0BFF35F8F01238340084A136208490A
:101C70000A789A430A70BFF35F8F034B00221A6001
:101C80008CF310887047C046280100D00040054002
:101C9000BF10002010B500291ED0037B99421BD82D
:101CA0004B005B18033B0468A4466344002919D029
:101CB000002A1DD0914221D0002A25D0047BA242C7
:101CC00022D80468500080180338201881701978D1
:101CD00000291FD11A7010BD104B114A68211148FC
:101CE00000F0CAFA104B114A6F310E4800F0C4FAE6
:101CF0000F4B0E4A70210B4800F0BEFA0D4B0B4AF9
:101D00007121084800F0B8FA044B054A68210548DB
:101D100000F0B2FA41701A70DDE7C046005A0010B8
:101D20008C5E00101C5A0010905A0010785E001053
:101D30009C5A0010A85A001070B506000D0014003F
:101D4000002914D0002A14D08068736898470028AE
:101D500006D0220029003000FFF79CFF280007E092
:101D60002A0021003000FFF795FF200000E010005E
:101D700070BD0800FCE7000010B500234373013379
:101D80008373037BC3730123027B9A4214D9002B14
:101D90000CD0027B934209D85A00D218033A01684A
:101DA0008C4662440133DBB25370EDE70B4B0C4AB7
:101DB00068210C4800F060FA002A09D0924207D846
:101DC000016853009A18033A8A180023537010BD13
:101DD000024B034A6821034800F04EFA005A0010F3
:101DE0008C5E00101C5A001010B5017342608360B5
:101DF000FFF7C2FF10BD000070B50400081E00D13F
:101E000070BD002934D0237B994231D84B005B1838
:101E1000033B2268944663445A78002AF0D02DD0C0
:101E2000237B9A422AD853009B18033B21688C4697
:101E300063445D7800215970002825D0237B9842A7
:101E400022D843001B18033B21688C4663440021C1
:101E5000597001002000FFF76FFF060029002000E5
:101E6000FFF7CAFF020031002000FFF765FFC7E758
:101E7000084B094A6821094800F0FEF9054B064A5B
:101E80006821064800F0F8F9024B034A682103482C
:101E900000F0F2F9005A00108C5E00101C5A00107D
:101EA00070B505000C001600002928D02DD0037B4A
:101EB00099422AD84B005B18033B0268944663445E
:101EC0005A78002A27D19A78002A2AD11978FFF760
:101ED00093FF0300002E03D0EA7B002A27D1EC7386
:101EE000002B37D1002C49D02B7B9C4246D82B6845
:101EF00061000C19033C1C190023637070BD224B58
:101F0000224A3821224800F0B7F9224B224A6821A0
:101F1000224800F0B1F9224B1C4A3A211C4800F03B
:101F2000ABF9204B194A3B21194800F0A5F9002ACA
:101F30000AD0297B8A4207D851008A18033A2968B7
:101F40008C4662445470CAE7124B134A6821134806
:101F500000F092F9002B0BD02A7B934208D8430063
:101F60001B18033B2A689446634400229A70B9E721
:101F7000084B094A6821094800F07EF9054B064ADA
:101F80006821064800F078F9745D0010645E001066
:101F90007C5D0010005A00108C5E00101C5A00106E
:101FA000E05D0010085E001070B504000A00457B7B
:101FB0002900FFF775FF6073280070BD70B504003D
:101FC000002967D0437B8B420ED0002911D0037BC0
:101FD00099420ED84B005B18033B0268D0188378F7
:101FE000002B0CD1002056E00121FFF7DDFF01207E
:101FF00051E0294B294A6821294800F03DF9002B7E
:1020000020D0227B93421DD85A00D318033B22686C
:10201000D2182568EB5C8B421AD0002B1BD0227B98
:10202000934218D85A00D318033B2268D218537829
:102030008B4216D0002BF0D11A4B1B4A67211B484C
:1020400000F01AF9144B154A6821154800F014F9EC
:102050004378137007E0104B104A6821104800F0D5
:102060000BF94378537000238370437001222000E2
:10207000FFF716FF0200617B814205D02000FFF7C9
:102080005BFE6073012006E0094B074A6D2107489B
:1020900000F0F2F8002070BD005A00108C5E0010B5
:1020A0001C5A0010CC5800104C5E00107C5D0010D3
:1020B0002C5E001010B50400FEF790FD010020001A
:1020C000FEF7A2FFFF232371BFF35F8F10BD10B592
:1020D0000400FEF783FD01002000FEF795FFFF23BB
:1020E000237100236371BFF35F8F10BD10B58300B0
:1020F000084A944663441C6840226240C02414404D
:102100008022520113431C60C000034B9C46604474
:10211000416010BD04C001400040014080000B4BF5
:102120009C46604400290DD00823002A0CD00422CC
:102130001343026853400C22134080225201104383
:10214000036070470023F0E70022F1E704C001407C
:1021500010B501238340D0221206936293610521BA
:10216000FFF7C4FF10BD000070B504000D0006208D
:1021700000F036FAC000290001F008FCC60908D0BA
:102180000E4B9E4217D87F23184001303500460879
:1021900000E001256562A6622C34802080010443A2
:1021A00000232360062000F01BFA8000A901891992
:1021B00001F0ECFB70BD0026014DEBE7FEFF0000D7
:1021C000FFFF0000002909D00A22064B9C4660440C
:1021D000434258414000044BC25270478022520093
:1021E000F3E7C0460080FCBFB410002070B50500C6
:1021F0000C00062000F0F4F9002829D0164B9D426F
:1022000027D08022D203154B1A60154B1A60154B4C
:102210009B6811009943FAD100212800FFF7D2FFF3
:1022200021002800FFF7A0FF2C002C34E96A60226F
:102230004A406E21114080225201224311600A4B14
:102240002B6380239B01234310221A600323AB647A
:1022500070BD80221204D6E70080034000E00040F9
:1022600000F0004000C000400103000000BEFDE798
:1022700010B5FFF7FBFF000010B582B00C0019008D
:10228000002A0CD0084B002A0BD0019200932300A7
:102290000200064802F0C2FB0120FFF7E7FF044BF3
:1022A000F1E7034AF1E7C0465C5F00106C5F001085
:1022B0008054001070B52B4B2B4A1A602B4B2C4AC4
:1022C0001A602C4B9A682A4B9343FAD12A4C01E0AE
:1022D00008CC9847294B9C42FAD300F001F9234BD4
:1022E000274A1A60234B9B68DB43DB01FAD1254B5D
:1022F00040229A675A671A67DA66234C09E0234B33
:10230000234A83212348FFF7B7FF2000FFF7D2FEBF
:102310000834214B9C4209D22368002BF5D0012BB5
:10232000EDD12000FFF7D3FE0834F2E71B4CA16883
:102330001B4DC022280002F02DFAA560FDF793FF87
:10234000002800D000BEFEF739FCFEF74FFEFFF775
:1023500099F9144C01E008CC9847134B9C42FAD3EE
:1023600070BDC04600E00040BFCDFBFE00F0004065
:10237000FE7F3C0000C00040880800209808002034
:10238000FFFFFF0100F00140800800209C5F00106B
:102390003C600010BC5F00108808002000ED00E0E9
:1023A0000000002098080020A80800200FB400B505
:1023B00083B0084802F000FB049B002B07D005A95E
:1023C0000191180002F008FB034802F0F5FA012021
:1023D000FFF74CFF2860001038600010F8B5DE46AB
:1023E00057464E464546E0B505000F0092460A9A0C
:1023F00093424ED31A0E91461E020A9A00233000D1
:10240000494601F005FB80466C006419A4002F4B7F
:102410009C4664446368834200D260602B1FDBB239
:102420009B46012B3BD9C0239B01234380221201F1
:102430001A60AB00264A9958002905D0506901F06E
:10244000A5FA01300138FDD153465A0123685A409C
:10245000E0231A4080235B0123431A605A46012A75
:1024600028D980239B012343802212011A6043460E
:102470006360424600233000494601F0C9FAAD00CE
:10248000134B58510120F0BCBB46B246A946A046AA
:10249000F8BD104B104A2D211048FFF7EDFE012F1B
:1024A000C1D1C0239B01234303221A60A368DB0729
:1024B000FCD5C9E72168794003220A401A60A26866
:1024C0000123BB401342FAD0CBE7C0460080004056
:1024D000EC0C00204C600010D06000106060001018
:1024E00030B583B00C2000F021F9FEF75DFB002829
:1024F0000DD0002304E099002D4A2E488850013366
:10250000092BF8D92A4B2C4A5A6203B030BD2B4B09
:1025100000229A6700F012F9294B01221A60274B1A
:102520005B6C012BFBD1274B03221A60234B9B6B67
:10253000012BFBD1013300930433234A01212348AB
:1025400000F054F805230093214A0121214800F0AE
:102550004DF8214B0093002202210420FFF73EFF9B
:102560001E4D00952B00002201210520FFF736FFAC
:10257000104C00942300002200210720FFF72EFFBB
:1025800000942300002200210820FFF727FF0A4BB8
:1025900000932300002200210920FFF71FFF009570
:1025A0002B00002200210620FFF718FFADE7C046F0
:1025B000EC0C0020006CDC021BB700000080004027
:1025C0003CB0004030B00040002F6859008002400D
:1025D000008C864700C00240001BB70040597307BB
:1025E0008000014BC0587047EC0C0020F0B5C64687
:1025F00000B504000F0090461D000C2001F0C6F944
:1026000006003D4A42443D4B9A4243D843011B1ABF
:102610009901C91AC90009188901404601F0B6F9A3
:102620000200103A98235B009A4239D86B1E062BA1
:102630003CD8069B013B062B38D8069B9D423BD3DA
:1026400043461A09B2423DD32D04069B1E0335436F
:102650002368002B3CDB2A4B9C424AD0802252014B
:10266000284B1A60284B1A60284B9B68110099432D
:10267000FAD12760A060231DC02292011A432123B2
:1026800013602368002BFCDAE5600823136080BC2C
:10269000B846F0BD1E4B1F4A11211F48FFF7ECFD45
:1026A0001E4B1C4A19211C48FFF7E6FD1C4B194A1A
:1026B0001C211948FFF7E0FD1A4B164A2221164843
:1026C000FFF7DAFD184B134A25211348FFF7D4FD15
:1026D00022683F231340BB42BDD1A3681B051B0DDD
:1026E0008342B8D1E368EE22D2021340AB42B2D1AA
:1026F000CDE780229201B3E780E84BD380F8A9327E
:1027000000C0024000E0004000F0004000C0004077
:10271000E06000104462001040610010A8610010E9
:10272000C4610010106200102862001080239B001A
:102730000343014AD362704700800540064BAA223A
:1027400012011A602F22DA60044B054A1A60024B0C
:102750005B68002BFBDA70470040024000600240DB
:1027600000B0FA009A4200D288547047704710B502
:10277000002802D00B684968984710BD010000206E
:1027800007E083001B185B00501C08601078C0181D
:1027900030380A681378303BDBB2092BF1D9704727
:1027A000F0B5DE4657464E464546E0B583B0934603
:1027B0001F000C9B9A460D9C0E9B99460F9B9B07F6
:1027C00003D0B8460F00060022E00192A3468846D7
:1027D0004E46B9460700B44207D2551C4B46414607
:1027E0002020B84701342A00F5E73D004F465C46FB
:1027F000019B9B46B1464646B84637002E0007E08F
:10280000013C551C5346185D43463900B0472A0029
:10281000002CF5D135003E0047460F9B9B0707D49F
:10282000100003B0F0BCBB46B246A946A046F0BDBE
:10283000B0464E46B9462F005D46531BB342EFD219
:10284000541C4B4641462020B8472200F5E7F0B51E
:10285000CE46474680B585B0944698460C9D0D9C63
:102860000EAB1B789946109A119B129EB7071CD489
:10287000002B0CD0F7070AD54F46002F02D10C379A
:10288000374204D0013B02E030272F5501349442F7
:1028900001D21F2CF8D9F70707D59C4205D21F2C6F
:1028A00003D830272F550134F5E7F70615D57705FE
:1028B00005D4002C03D0944224D09C4222D00F9AFD
:1028C000102A2BD00F9A102A30D00F9A022A35D016
:1028D0001F2C02D830222A5501341F2C05D84A4615
:1028E000002A31D02D222A550134039602930194F7
:1028F000009543466246FFF753FF05B0C0BCB9469A
:10290000B046F0BD621E012C06D00F9F102F01D0E3
:102910001400D4E7023CD2E71400D0E7B206D1D4C9
:102920001F2CCFD878222A550134D1E7B206CCD556
:102930001F2CCAD858222A550134C9E71F2CC7D8E2
:1029400060322A550134C3E7720703D52B222A557A
:102950000134CAE73207C8D520222A550134C4E71A
:10296000F0B5DE4657464E464546E0B593B0814643
:102970008A46089209931CAB10CB1B789B461E9D80
:10298000219B9846002C03D1102342469A4390463F
:102990008023DB0046461E4042461A4212D0002CDD
:1029A00022D000260EE03033D9B2771C0AAB9955FD
:1029B0002900200000F0EAFFAC4216D31F2F14D8E4
:1029C0003E0004002900200000F0E0FFCBB2092BFC
:1029D000E9D94246920605D54121C918C9B20A393A
:1029E000C9B2E2E76121F8E7270043460693209B3E
:1029F00005931F9B049303955B46029301970AABD3
:102A00000093099B089A51464846FFF720FF13B0F0
:102A1000F0BCBB46B246A946A046F0BDF0B5DE46C6
:102A200057464E464546E0B595B0089009910A9242
:102A30000B931E9E1F9C20AB1B789B46229B9946A6
:102A4000239D269B9A463300234303D110335246DD
:102A50009A4392468023DB0057461F4052461A4253
:102A600019D0330023432DD0002714E03033DAB2DD
:102A70007B1C98460CABDA554A462B0030002100EF
:102A800000F0C6FFA5421FD819D043461F2B1BD804
:102A9000474606000C004A462B003000210000F09B
:102AA000B7FFD3B2092BE1D95246920605D5412290
:102AB000D218D2B20A3AD2B2DAE76122F8E7B145C7
:102AC000E3D901E00023984653460693259B0593DE
:102AD000249B04934B4603935B4602934346019326
:102AE0000CAB00930B9B0A9A09990898FFF7AFFE6D
:102AF00015B0F0BCBB46B246A946A046F0BD0000EA
:102B0000F0B5DE4657464E464546E0B591B08346A1
:102B10008A460C9298461A9C08941B9D099522009F
:102B20002B002000290001F002FA002800D0E5E087
:102B300001225242D74B2000290001F0F3F900286E
:102B400000D0DBE001225242D34B2000290001F0EB
:102B5000D3F9002800D0D1E000220023089E3000E5
:102B6000099D290001F0C8F9002800D0DDE008988F
:102B70000999069007918023DB001E9A1A400D9256
:102B80001E9A1A4201D106231C9306980799040045
:102B90000D000A000600024300D1D1E0080D4005F7
:102BA000400DBE4CA44660440A03120BBC4B1343B9
:102BB0001F0001F0CFF9BB4ABB4B01F05AF9BB4AE9
:102BC000BB4B01F02FF904000D000022B94B30007F
:102BD000390001F01EF9B84AB84B01F04AF9020079
:102BE0000B002000290001F01DF901F0CBF981460E
:102BF00001F0B0F904000D00B14AB24B01F039F90F
:102C00000022B14B01F00EF901F0BCF90600AF4A09
:102C1000AF4B2000290001F02CF904000D0030001A
:102C200001F098F9AB4AAC4B01F023F902000B001C
:102C30002000290001F0EDF804000D0002000B0057
:102C400001F017F90A900B91A44BF31800261F0509
:102C500022002B002000290001F0E4F80E900F91D3
:102C600022002B0000208021C90501F0D2F80400C9
:102C70000D0000229A4B0A980B9901F0DCF8002213
:102C8000984B01F0CFF802000B000A980B9901F065
:102C9000D2F80022944B01F0C5F802000B000A980C
:102CA0000B9901F0C8F802000B002000290001F088
:102CB000B9F802000B000E980F9901F0BCF8002241
:102CC000774B01F0AFF832003B0001F0D2F806007C
:102CD0000F0004000D00069A079B01F023F900285D
:102CE00030D001235B429C46E14400227D4B300002
:102CF000390001F0A0F804000D0023E01E9B0493AE
:102D00001D9B03931C9B0293089A099B00920193BD
:102D100043460C9A5146584600F0FCF811B0F0BCFE
:102D2000BB46B246A946A046F0BD00230024069348
:102D30000794069680231B069C46654407951AE770
:102D4000002399464B466333C62B1ED804261E9B90
:102D50001B0526D52B0023430FD0644A644B0698ED
:102D6000079901F0D7F8002879D00022614B069826
:102D7000079901F0C1F8002871D01C9B4B4506DD76
:102D80004A46981A431E1C9303E00526DFE70023FA
:102D90001C938023DB001E9A1A431E9200260023F8
:102DA00099461D9B9E4264D29F1B02231E9A1A4085
:102DB0000A921E9A134202D0002E00D000274B46E2
:102DC000002B07D022002B000698079901F033F85A
:102DD00006900791002200230898099901F08CF8C9
:102DE000002848D1444B1E9A1340049303971C9B20
:102DF0000293069B079C0093019443460C9A51460C
:102E0000584600F087F8002E00D187E71E9B9B06EE
:102E10003DD54525441C4346020051462800D8476D
:102E20004B46DA179B18534005220592013E049643
:102E3000002203920A3202924A46D00F0190009378
:102E40004346220051465846FFF78AFD0A9B002B55
:102E500000D163E702005F460C9E1D9D54E01C9B61
:102E6000002B9ED00D9B002B9BD01C9B013B1C93E9
:102E700097E7002799E7069C079D220029008020FC
:102E80000006844661440B0006920793AAE7652575
:102E9000C0E7C046FFFFEF7FFFFFEFFF01FCFFFF32
:102EA0000000F03FFB799F501344D33FB3C8608BC1
:102EB000288AC63F0000F83F61436F63A787D23F6F
:102EC00071A379094F930A400000E03F1655B5BB46
:102ED000B16B0240EF39FAFE422EE63FFF030000DD
:102EE00000002C4000002440000018402D431CEB43
:102EF000E2361A3F80842E41FFF7FFFF541C434601
:102F000051462020B8472200931BAB42F6D3100055
:102F100004E7C046F0B5DE4657464E464546E0B5A6
:102F200095B00690079193469946209F1E9A1F9B45
:102F30001000190000F0FBFF002831D1012252429D
:102F4000BF4B1E981F9900F0D7FF002837D10122F0
:102F50005242BC4B1E981F9900F0E4FF00283DD15F
:102F60000022B94B1E981F9900F0DCFF002850D1B9
:102F70000022B64B1E981F9900F0BEFF002848D1D2
:102F8000002200231E981F9900F0B6FF002850D1A0
:102F900000239846229B5B0500D4B6E0002458E04D
:102FA000229B0393219B029303230193A84B00933D
:102FB0004B465A4607990698FFF7F2FB0EE1229B13
:102FC0000393219B029304230193A24B00934B464E
:102FD0005A4607990698FFF7E3FBFFE00423229A7D
:102FE0001A4022990B4210D09B4B002A0FD004228A
:102FF0002299039121990291019200934B465A46DE
:1030000007990698FFF7CCFBE8E0944BEDE7032225
:10301000EEE7229B0493219B039302971E9B1F9C28
:10302000009301944B465A4607990698FFF768FDAE
:10303000D4E01E9A1F9B0020002100F0EAFE1E90A3
:103040001F9101239846A5E70CAB30221A55013F8A
:1030500001341F2C01D8092FF6D81E981F9900F0B3
:1030600091FF050000F076FF02000B001E981F99EB
:1030700000F0CFFEFA007A4B9B181A685B680A9240
:103080000B9300F0F6FE0890099100F09FFF0600F8
:1030900000F05CFF02000B000898099900F0B9FEEF
:1030A0000890099100226F4B00F03CFF00282ED0C1
:1030B0000136300000F04AFF02000B000A980B991D
:1030C00000F020FF002801D001350026002F2CD170
:1030D000280000F03FFF02000B001E981F9900F02F
:1030E00098FE06000F0000225E4B00F005FF00284E
:1030F00046D100225B4B3000390000F013FF00285E
:103100003ED1EB073CD501353AE0062746E70022E1
:10311000544B0898099900F0EFFE0028D6D1002EF4
:1031200001D0F307D2D50136D0E7AA461F2C11D81B
:10313000013F0A21300000F029FC651C30310CAB46
:1031400019550A21300000F021FC092E0ED9060085
:103150002C00EBE755461F2C0CD87B1E002F09D006
:103160000CAA302111551F000134F4E72B005546FD
:103170001C00F0E71F2C03D80CAB2E221A5501348B
:103180001F2C10D80A21280000F0D8FB661C303113
:103190000CAB19550A21280000F0D0FB051E01D008
:1031A0003400EDE734000323229A1340012B1CD096
:1031B0001F2C06D84346002B32D00CAB2D221A55BB
:1031C0000134229B0393219B029301940CAB009347
:1031D0004B465A4607990698FFF7E2FA15B0F0BC3D
:1031E000BB46B246A946A046F0BD219B002B13D09A
:1031F0004346002B02D10C3313420FD0219B013BDD
:103200002193190003E00CAB30221A5501348C4293
:10321000CED21F2CF7D9CBE72199F8E72199F6E711
:10322000229B5B0704D50CAB2B221A550134C8E74F
:10323000229B1B07C5D50CAB20221A550134C0E7D1
:10324000FFFFEFFFFFFFEF7F65CDCD4165CDCDC126
:103250005C62001060620010546200105062001046
:10326000486400100000E03FF0B5DE4657464E4689
:103270004546E0B593B082468B46904611930029AF
:1032800000D1EBE200275546119B1878002800D1A9
:10329000E7E2252809D07C1C43463A005946A84756
:1032A000119B013311932700EEE7013311930024A2
:1032B000119A11780B00203BD8B2102803D8830054
:1032C000D048C3589F460B00303BDBB2092B2CD9AA
:1032D0002A292FD000230A93119B1A782E2A39D03D
:1032E00000239A46119A1378683BD9B2122976D8EE
:1032F0008B00C549CB589F4601231C4301321192D4
:10330000D6E702231C4301321192D1E704231C4368
:1033100001321192CCE708231C4301321192C7E716
:1033200010231C4301321192C2E711A8FFF726FABD
:103330000A90D1E71C9B1A1D1C921868002804DB18
:103340000A90119B01331193C6E702231C434342A9
:103350000A93F6E78022D20014435A1C11925A783D
:103360001300303BDBB2092B04D92A2A07D00023F3
:103370009A46B7E711A8FFF701FA8246B2E71C9B0D
:103380001A1D1C921868002804DB8246119B013329
:103390001193A7E70020F8E780235B002343511C2B
:1033A000119152786C2A01D01C0018E0C0239B00B8
:1033B0001C430131119112E080232343511C1191D0
:1033C0005278682A01D01C0009E0C0231C43013157
:1033D000119104E080235B001C4301321192119B88
:1033E00018780300253BDAB2532A00D92CE2930067
:1033F000864AD3589F4680239B001C43013211927A
:10340000EDE780235B001C4301321192E7E7782847
:1034100009D0582838D06F2838D0622838D01023E7
:103420009C430A2600E01026582833D0692803D090
:10343000642801D00C229443630501D501229443F2
:1034400069282AD0642828D0A30500D59FE0E30589
:1034500000D5B8E0630600D4CAE01C9A111D1C9187
:103460001168FF220A4005940A9B04935346039374
:10347000029600230193009243463A0059462800E1
:10348000FFF76EFA070027E01026CDE70826CBE706
:103490000226C9E720221443C8E7A30520D4E30588
:1034A00050D4630666D51C9A111D1C911168FF2229
:1034B0000A40D317D118594005940A9B04935346E8
:1034C00003930296D20F0192009143463A00594667
:1034D0002800FFF745FA0700119B01331193D3E64B
:1034E0001C9BDA1D07218A43110008311C911168C9
:1034F00053689C46DB170C930D930C9A0D9B1000A0
:1035000048400E90624653400F930E980F990C9AC4
:103510000D9B801A99410E900F9108940A9B079376
:10352000534606930496002305936346DA0F0292EE
:103530000090019143463A0059462800FFF76EFA81
:103540000700C9E71C9A111D1C911268D317D118E6
:10355000594005940A9B0493534603930296D20F55
:103560000192009143463A0059462800FFF7F8F9C6
:103570000700B1E7230605D51C9A111D1C910023F5
:10358000D25E96E71C9A111D1C91126891E71C9B54
:10359000DA1D07218A43110008311C9108940A9B07
:1035A00007935346069304960023059302931368EA
:1035B00054680093019443463A0059462800FFF7A7
:1035C0002DFA070088E71C9A111D1C9105940A9B8F
:1035D00004935346039302960023019313680093C8
:1035E00043463A0059462800FFF7BAF9070073E747
:1035F00023060DD51C9A111D1C9112681204120C81
:1036000031E7C04668620010AC620010F86200103A
:103610001C9A111D1C91126825E746281AD01C9B84
:103620000733072293431A0008321C9204940A9A23
:103630000392524602925C681B68009301944346D1
:103640003A0059462800FFF765FC0700119B01333B
:10365000119319E620231C43E1E7672801D047288E
:1036600002D180231B011C43452801D0472801D1EA
:1036700020231C431C9B0733072293431A00083264
:103680001C9204940A9A0392524602925C681B6848
:103690000093019443463A0059462800FFF730FA58
:1036A0000700119B01331193EEE502231A0022401B
:1036B000924623421FD001241C9B1A1D1C927A1C87
:1036C0009146187843463A005946A8475346002B7E
:1036D00016D1119B013311934F46D5E5561C434635
:1036E00059462020B847230032005C1C9D42F5D883
:1036F0003D001700E0E701233A002F000A9DF4E7A0
:103700004A46A9460A9D06E0571C434659462020D2
:10371000C84734003A00661CA542F5D84D4691468C
:10372000D7E71C9B1A1D1C921B6899465346002B19
:1037300000D1013B4E4601E0013613003278002AE9
:1037400002D05A1E002BF7D14B46F21A109280235A
:10375000DB0026001E401C4203D0524501D95346CF
:10376000109302231A0022400B92234205D03A0004
:1037700037004C46A946554620E03A00109B5F466C
:10378000B3462E0006E0551C434639002020B047C2
:1037900023002A005C1C0A999942F4D835005E4641
:1037A000BB46109437004C46A946554606E01D001E
:1037B0000134561C43465946C84732002078002839
:1037C00004D0002FF4D06B1E002DF0D117004D4611
:1037D0000B9B002B03D1119B0133119354E50A9FDE
:1037E000109B06E0561C434659462020A84723005C
:1037F00032005C1C9F42F5D81700ECE721231C43E4
:103800001C9B1A1D1C921B680093059408230493AB
:1038100053460393102302930023019343463A0037
:1038200059462800FFF79CF80700119B01331193BC
:103830002AE57C1C43463A0059462520A847119B9F
:103840000133119327001FE57C1C43463A0059467B
:10385000A847119B01331193270015E50A4B9A469F
:1038600010E5AA46474502D343465A1E00E03A00F7
:10387000434659460020D047380013B0F0BCBB4641
:10388000B246A946A046F0BD6D2700100EB410B593
:1038900085B0010007AC08CC039401220094524289
:1038A0000348FFF7E1FC05B010BC08BC03B01847A3
:1038B0006527001000B585B00290039101210093A7
:1038C00013004A4202A90248FFF7CEFC05B000BD32
:1038D0006F27001001480421014B184720040020E5
:1038E0000539001010B5010018231B881422108818
:1038F000984710BD10B5010018231B8816221088A8
:10390000984710BDF0B5C64600B507000E0000256B
:103910000123984600E00135B5420AD2AC003C19BB
:103920002068FFF7DFFF20600028F4D100239846CD
:10393000F1E7404680BCB846F0BD0000124A936FE4
:103940009B0815D29066D166002905D0FFE7FFE7F6
:10395000FFE7516F106F704704B580210906C21749
:103960005140002800D0C84301F07AFC002104BD7A
:10397000F0B5146E556E576F166FFFF7E3FF1466C0
:10398000556657671667F0BD000000D0114A936F67
:103990009B0813D210665166002905D0FFE7FFE7A8
:1039A000FFE7516F106F704704B5002801D0002069
:1039B000C04301F055FC002104BDC046F0B5146EB3
:1039C000556E576F166FFFF7E5FF1466556657671C
:1039D0001667F0BD000000D094464E4A926F9208E0
:1039E000624601D230E0C046F0B54A4EB56F6D0870
:1039F000FCD3346E756E776F366F00F025F8944601
:103A0000444A14665566576716676246F0BDC0465D
:103A10009446404A926F9208624601D258E0C046EE
:103A2000F0B53C4EB56F6D08FCD3346E756E776F94
:103A3000366F00F04DF89446364A1466556657675F
:103A400016676246F0BDC046002B24DB11D000296A
:103A50003EDA00B5C943404200D1013100F038F8E8
:103A6000C943404200D10131DB43524200D101330E
:103A700000BD002AEBD1002801D1002905D000208B
:103A8000C90FC90701D1C043410800B501F0E0FBEF
:103A90000022002300BD00B500290ADBDB435242AF
:103AA00000D1013300F014F8C943404200D1013184
:103AB00000BDC943404200D10131DB43524200D135
:103AC000013300F005F8DB43524200D1013300BD61
:103AD000002923D1002B18D1002A0CD0BC460D4F51
:103AE00038667A6600210023FFE7FFE7FFE77A6F79
:103AF000386F67467047002801D00748010000B5BD
:103B000001F0A6FB0022002300BD02000B000020F4
:103B100000217047000000D0FFFFFFFF002B00D006
:103B2000BFE0130C28D1002AE7D080B4114F3966CA
:103B30007A66FFE7FFE730B4040C7B6F396F1B0434
:103B400023433B667A66FFE7FFE7FFE7C04684B2A0
:103B50007B6F3D6F1B0423433B667A66FFE7FFE7FD
:103B6000C04600232C042D0C7A6F386F0019694170
:103B7000B0BC7047000000D0F0B594460025140E8C
:103B800001D112020835140F01D112010435940F2E
:103B900001D192000235D40F01D152000135D40B6E
:103BA0000134254F7C66254C3C660E0C93B2FFE732
:103BB000FFE7FFE73C6F6643360C7703BE4673436F
:103BC000DF0B5B04C01AB941130C7343DB18C91A2D
:103BD000CE086643360CB64493B273431F0F1B01E5
:103BE000C01AB941130C73431F0B1B05C01AB9410E
:103BF000860D8F023E436643360C092D24DB520AA4
:103C00007243801A7703460A6643360C16235B1B01
:103C1000DE40DF40BF1964466643821B70460435B0
:103C200006330100D940A840C01900D30131A24297
:103C300006D20023F0BD0000000000D0FFFFFFFF10
:103C4000121B0130F3D3F1E709277F1BFE406446C6
:103C5000A2B27243801A00D20139220C7243130CB3
:103C60001204821A99410B00704604351337010083
:103C7000F940A840801900D30131002B02D1A242A3
:103C80000AD2F0BD013000D30131121BFAD2013B40
:103C9000F8D1A24200D2F0BD013000D30131121B95
:103CA000F7E7F0B51C0C00D080E00CB400251C0A2E
:103CB00004D11B02160E3343120208351C0B04D12B
:103CC0001B01160F3343120104359C0B04D19B00DA
:103CD000960F334392000235DC0B02D192185B4100
:103CE00001351C00971864410134464F7C66464CF0
:103CF0003C660E0CFFE7FFE7FFE7C0463C6F6643FC
:103D0000360C7703BE4697B27743C01B00D2013909
:103D1000C01B00D201399FB27743C91BC91B170CC6
:103D200077437E04FF0B801BB941CE086643360CF7
:103D30000C2D33DBB644120B1F053A431B0B97B215
:103D40007743C01B00D201399FB27743C91B170CC0
:103D500077433E043F0C801BB941860D8F023E43E2
:103D6000664329277F1BFE400C3D7746AF40BF19B5
:103D700030BCA2B2ABB272437343801A9941220C99
:103D80007243130C1204801A994102000B00013790
:103D9000001BA941F9D2781E0021F0BD0C277F1B22
:103DA000FE4077467F0BAF40FF19E0E700245D1C23
:103DB00007D0144F7D663966FFE7FFE7FFE7FFE7AF
:103DC0003C6F95B29EB265436643401BB141150CF2
:103DD0001E0C6543664336042F0C3E432D04401BE6
:103DE000B141994204D202000B0020000021F0BD35
:103DF00001D19042F7D3801A994101349942F2D30C
:103E0000F6E70000000000D0FFFFFFFF4840414000
:103E1000484018B41B4B5B68FC46019308BD04DFA7
:103E2000E740001018B4174B1B68FC46019308BD0F
:103E300000DFF14000109446134A926F920809D2B5
:103E4000624618B40F4BDB68FC46019308BD0CDFDB
:103E5000A94300100C4AF0B5146E556E576F166FDB
:103E60006246FFF7EEFF084A146655665767166705
:103E7000F0BD18B4034B9B68FC46019308BD08DFF6
:103E80004D4200109C0E0020000000D0FFB55040B5
:103E90004240504059404B40594000E0FFB5154F5B
:103EA0004C00640D03D0BC4204D10C0314D8002094
:103EB000090D09055C00640D03D0BC4204D11C034C
:103EC0000AD800221B0D1B0501264B4009D44B408C
:103ED00003D58B4200D18242FFBD9942FCD1904272
:103EE000FFBD0B43DB1803431343F5D0C943491807
:103EF000FFBD0000FF07000000B5FFF7CFFF8041C6
:103F000000BDC04600B5FFF7C9FF01D9002000BDC4
:103F1000012000BD00B5FFF7B9FF01D9002000BDA9
:103F2000012000BD00B5FFF7B1FF804100BD0120B9
:103F300040054A00121804D85A00121801D800206F
:103F400070470120704700207047000000210028C2
:103F500005D17047C1174840401AFAD0C90713B5B8
:103F6000064B1B6898470CBC441CA2401005120B62
:103F70000349091B09051943114310BD9C0F00207B
:103F80001F04000010B54C00620D8023D218DB0026
:103F9000D21A5B057E2A10DD9E3A13DACC1709038C
:103FA000490819435242D140640001341532202A95
:103FB00005DAD0400843604310BD002010BD08461C
:103FC000604310BDC80FC018013810BD18B4044BB1
:103FD0005B6AFC46019308BD24DF594500100000D0
:103FE0009C0E002070B513231C78012C14D0012CDA
:103FF00014DC022C02DC1F4A1F4B9A641F48FFF797
:1040000071FC1F4B186070BD99001A481A4A8850FD
:1040100001331F2BF8D9EAE70023FAE71948FFF725
:1040200069FC05001848FFF765FC023803789B001F
:104030007F2B19DD802229000F4800F0ABFB022CFA
:10404000D7D1124B1A88B5231B029A4209D1104BC3
:104050001A88104B9A4204D10F4B1A880F4B9A4280
:10406000C7D00020FEF7A2F90D4B0E4A32210E48B0
:10407000FEF702F9AD4000109C0E00204C3300000A
:104080009C0F0020534400005346000054380000A9
:10409000D8380000494600009C380000594600000E
:1040A000986400106C650010F864001007B5604655
:1040B000002800D100BE01880A0A0230DF2AFAD1A6
:1040C000C9B2820804D3028840880004104300E08B
:1040D0000068024A5050039007BD00009C0E00206B
:1040E0000FB403BC0CBCF0B50124E407634000E04E
:1040F000F0B50C0DCF0F661E3605891B640503D382
:10410000C943404200D30131640D03D0661CF60A56
:1041100007D0E41B00207F00791C89078912803CAE
:1041200024031D0DDF0F6E1E36059B1B6D0503D38B
:10413000DB43524200D301336D0D03D06E1CF60AEF
:1041400007D0ED1B00227F007B1C9B079B12803D4C
:104150002D032F1B661B58D4A446202E46DA203789
:104160001400BC401D00BD40F24033412A4380187A
:104170005941CB0F05D0C943C0430022644250418E
:10418000514162464D0D28D10D0D07D100281FD099
:10419000241940414941013A0D0DF9D0640006D37C
:1041A000013000D30131002C01D140084000013A18
:1041B0000BD4941CE40A04D112051144DB07194402
:1041C000F0BDD907204B194300E0D9070020F0BD0E
:1041D0000029DDD1002CDBD1F0BD0132C60740083B
:1041E000CD0728434908002EE1D0D9E73C2E29DA33
:1041F000203E40371400BC4000D00124F24014435C
:104200001A00BB401C43D317ACE7AC46202F08DA9A
:1042100020360400B4400D00B540F8403941284331
:10422000A5E73C2F0CDA203F40360400B44000D014
:104230000124F84004430800B1400C43C117EAE7E9
:1042400010001900002494E70000F07FF0B50C0D79
:10425000661E3605891BE60A6405640D02D0651CDE
:10426000ED0A04D0002001210905803C2403A44666
:104270001C0D671E3F05DB1BE70A6405640D02D0B9
:10428000651CED0A04D0002201231B05803C240399
:104290007740644497B484B296B27443070C7E436B
:1042A000150C6F4380B26843361802D30120000416
:1042B0003F183004350C00197D41844688B29AB20B
:1042C00050430C0C62431F0C7C438EB27E43921908
:1042D00002D301263604A4191604170C36186741B8
:1042E00001BC81B29AB25143040C62431B0C5C4383
:1042F00080B25843121802D301200004241810047D
:10430000130C401863412D185E410020474106BC44
:1043100088B293B258430C0C6343120C544389B2D5
:1043200051435B1802D301210904641819041A0CC3
:10433000091862416D1856410020474118BCF90226
:10434000720D1143F0026A0D1043ED020A0D03D104
:104350006D1940414941013B124E9B1B7600B3420F
:104360000ED26D0007D301300026714166463543F9
:1043700001D1400840001B05C918E4072144F0BDE5
:104380000BDA013306D1013004D101314F0D01D0D8
:104390004908F2E7E1070020F0BD013631050020B1
:1043A000EBE70000FF030000F0B51C0D671E3F05A2
:1043B000DB1BE70A6405640D02D0661CF60A04D014
:1043C000002201231B05803C2403D0252D06002656
:1043D000F6432E661E096E66CE0FF619B4464900E6
:1043E0004F0D02D07E1CF60A03D000200021403F72
:1043F0003F033E1BB600B444013F7F05C91B49087B
:104400002E6F013676089C02950D25437543ED13FA
:104410007543AD1301356D10F603761B0CB4CC0259
:10442000450D2C43A2B2B3B25A43270C7B43350C43
:104430006F43A4B26C431B1902D3012424043F1917
:104440001C041D0CA4187D4124196D41009A91B2E1
:10445000ACB26143170C7C432B0C5F4392B25A43BE
:10446000A41802D301221204BF182204230C5218EC
:104470007B41019C6C431B19520ED9010A43440134
:10448000A01A81B2B2B2514303145A43360C73439B
:1044900087B27743D617D21900277E4136049B197D
:1044A0001704160C7F185E417316ED18F3010026F1
:1044B00080337541A90F06D16400690AE8055B0ADB
:1044C000184309D22FE00422944480337541A90A8D
:1044D000A8059B0A184326D3404149412404009A69
:1044E000019B0D005543641B4343E41A95B286B209
:1044F0007543170C7E43030C5F4392B25A43B618C0
:1045000002D301221204BF183204330C52197B412A
:1045100052429C41002C02D40022013051414008FB
:10452000CA071043490802B06246D7079210084BE9
:10453000D218084B9A4203D212058918C919F0BD46
:104540000020002A01DC3900F0BD01331905F5E730
:10455000FD030000FE070000002200B5203200F03D
:1045600004F8080000BD000000220B150AD410B5A5
:10457000944600F031F81414013400DA0021CB170E
:10458000144C20470020002170476244343A0CD478
:104590000C2A07DA04009140904052422032D44065
:1045A000214310BDD843D94310BD203207D40C4657
:1045B0009440524220321141D040204310BD0800A7
:1045C000C917203203D452422032104110BD1800C6
:1045D000190010BD8B4500100A0DCC0F531E1B0592
:1045E000C91A520503D3C943404200D30131520DC9
:1045F00003D0531CDB0A07D0121B00206400611C8F
:1046000089078912803A1203014BD21A70470000C1
:10461000FF03000051434343C9188C46110C83B279
:104620004B4310B4040C614392B280B250436243D6
:104630001C041B0C001910BC59411304120CC018A7
:10464000514161447047000070B513231D782A481A
:10465000FFF750F90400012D11D0012D09DDA31E33
:104660001B789B007F2B40DD80222100234800F037
:1046700091F82348FFF736F9224B186070BD542299
:1046800001001E4800F086F81F4B1A881F4B9A4203
:104690001CD1A7239B011A881D4B9A4216D11D4B92
:1046A0001A881D4B9A4211D11C4B1A8894239B01E6
:1046B0009A420BD11A4B1A881A4B9A4206D11A4BBE
:1046C0001A681A4B9A4201D1152307E01848FDF7E2
:1046D0006DFE99001748094A885001331F2BF8D9FD
:1046E000144A064B1A62DA61B7E7134B134A4221A8
:1046F0001348FDF7C1FDC04653460000A00F00203F
:104700004C3300009C0F0020EE290000C40F000075
:10471000C20D0000962B0000C0B50000182B000051
:10472000CC2A000010B50000FC2C000051ED87647D
:10473000805400104547001080650010246600106A
:10474000B465001007B56046002800D100BE01889E
:104750000A0A0230DF2AFAD1C9B2820804D30288D9
:1047600040880004104300E00068024A5050039063
:1047700007BD0000A00F002001480421014B18478D
:104780003004002005390010014B1B681847000059
:1047900030040020014B5B68184700003004002003
:1047A00010B50300080011001B68984710BD0000F9
:1047B000F8B507000D001600437C002B02D0002442
:1047C00000200CE003681100280098472DE03B7C96
:1047D00010E0022115483B689847601C0134B44240
:1047E00014DA002CF3DD2B19013B1B780D3B5A42E8
:1047F0005341DBB22A5D0A2AF0D1002BEED1A04250
:10480000E7DA211A28183B689847E2E7B04203DA52
:10481000311A28183B689847002E06DDAD19013D76
:104820002B780D3B5A4253413B74F8BD9C660010F7
:1048300070B505000368002B16D00C4B1C6805E012
:10484000290004C92000FFF7B3FFE468002C09D059
:104850002368002BF9D0064B1B68002BF0D0A34235
:10486000F3D1EDE700232B6070BDC046540D00204E
:10487000640D002070B505000C000B68802B05D07E
:1048800021684B1C23606418257170BD0800FFF778
:10489000CFFFF5E710B582B0D0231B0600241C57CC
:1048A00001A9074800F0E4FC002806D1019B9C42C6
:1048B00003D0034800F0E4FC012002B010BDC04664
:1048C0008008002010B5024800F0BAFC10BDC046B8
:1048D00080080020F0B5CE46474680B583B006007C
:1048E0000D0090461C00FFF7D5FF81466B1C05D0DC
:1048F000002C08D0194F1A4B1C6807E0300000F05C
:1049000067FC0500F4E7174FF5E7E468002C17D0C3
:104910002368002BF9D0144B1B68002B01D0A34255
:10492000F3D12A0031002000B8474346002BECD0D9
:104930006B46D91D0A230B7001222000B847E4E71B
:104940004B46002B07D16B1E9D41E8B203B0C0BCA3
:10495000B946B046F0BDFFF7B5FFF4E7A147001038
:10496000540D0020B1470010640D0020094A01E0F9
:104970000C331A001368002B08D08342F8D10029A9
:1049800007D1C36813600023C36002E0002900D090
:1049900010607047540D002010B5064B1C6801E0F4
:1049A0009847E468002C03D06368002BF8D1F8E73F
:1049B00010BDC046540D002070B5050000F008FC85
:1049C00004000023012201002800FFF783FFFFF706
:1049D000E3FF200070BD000070B5A2B004000E001F
:1049E000FFF758FF05008422002101A8FFF7CCFE45
:1049F0003300220001A90848FEF75CFF040001A86B
:104A0000FFF716FFFFF7C8FF002D02D1200022B0EC
:104A100070BDFFF757FFF9E7754800100FB400B5F8
:104A200083B004A901C90191FFF7D6FF03B008BC08
:104A300004B0184710B500F085F810BDF0B583B08C
:104A400005000E0000240FE06B46D91D0D230B70EE
:104A50000020002816D193699B06FCD40B781360C4
:104A600001300131F5E70134B44219DA0D4B1A680F
:104A70002F5D0D4BD31859424B415B000B495B5ED8
:104A8000BB42E1D06B46D91D0F7000200028EAD14F
:104A900093699B06FCD40B78136001300131F5E774
:104AA00003B0F0BDB81000200080FCBFB41000209F
:104AB000F0B583B006000F00002004E06B4607331A
:104AC0001B7823702800B84215DA0E4B1A689369D8
:104AD0001024210019401C420DD1451C34186B468E
:104AE000D81D0029EAD19369DB06FCD41368037052
:104AF00001310130F5E7002801D003B0F0BD0338E3
:104B0000FBE7C046B810002070B515001C000B4B29
:104B10001860FDF76BFB002D06DA002C09DA012185
:104B20000748FFF723FF70BD02212800FDF7DEFADA
:104B3000F3E702212000FDF7D9FAF0E7B8100020D2
:104B40004004002010B5064B1B78064B1B78E12172
:104B50000123002249020448FFF7D6FF10BDC046DA
:104B6000E46B0010E86B00100040034010B50248F1
:104B700000F004F810BDC046940E002070B588B057
:104B8000040004AD002604960922002105A8FFF7C1
:104B9000FBFD00960922002101A8FFF7F5FD4B233C
:104BA0002B700D226946280000F042FB002304E030
:104BB0005A1D69468A5CE2540133072BF8DD08B0C0
:104BC00070BD0023036043600372FF2242720B3208
:104BD00083540C22FF3283547047000010B5012823
:104BE00000D010BD044B9942FBD10448FFF7E9FF08
:104BF0000348FFF7E6FFF4E7FFFF0000C4090020C9
:104C0000D00A002010B5094B984202D0084B9842B8
:104C100004D1064B984207D0064810BD064B074A00
:104C200014210748FDF728FB0648F6E7C4090020D1
:104C3000D00A002098030020E4690010046A0010E4
:104C4000D86800109003002010B50400437AFF2BB1
:104C50000CD1037A002B0FD101232372002385226C
:104C60005200A3540C22FF32A35410BD054B064A38
:104C70001A210648FDF700FBFFF7C4FFFBF7F6FC1F
:104C8000EAE7C046F0530010286A0010D868001008
:104C900010B5037A012B0DD1437AFF2B10D1FF29D8
:104CA00014D0417200238522520083540C22FF321B
:104CB000835410BD084B094A37210948FDF7DCFA37
:104CC000084B064A38210648FDF7D6FA064B034A38
:104CD000C6390348FDF7D0FA406A0010506A001048
:104CE000D8680010F05300107C6A0010F0B5CE4672
:104CF000474680B585B004008846037A012B30D141
:104D0000437AFF2B33D00C23FF33C55C002D34D105
:104D1000FCF7C4FE02000B1E35DB1F4E0027B61841
:104D20005F412000FFF76EFF22000A3285235B00FF
:104D30009946E35C617A02960397012647467740DD
:104D4000FEB20096FBF7C2FEFF23637200234A46C1
:104D5000A35400281DDB280005B0C0BCB946B046EE
:104D6000F0BD0E4B0E4A41210E48FDF785FA0E4B61
:104D70000B4A42210B48FDF77FFA0C4B084A4321AE
:104D80000848FDF779FA0A4B0A4A3F210A48FDF71D
:104D900073FA0425DFE7C046A0860100406A0010D0
:104DA000946A0010D8680010BC6A0010D86A00101D
:104DB00090520010AC520010E4520010F0B5CE46F4
:104DC000474680B585B0040088469946037A012B92
:104DD00030D1437AFF2B33D1150080235B009A42F8
:104DE00000D91D00FCF75AFE02000B1E2EDB1B4EE5
:104DF0000027B6185F412000FFF704FF02960397D3
:104E000001234A465A40D3B200932B0022000A32B3
:104E10004146FBF77AFE00281EDBC0B285235B000B
:104E2000E0540C23FF330022E25405B0C0BCB94665
:104E3000B046F0BD0A4B0B4A56210B48FDF71CFA51
:104E40000A4B084A57210848FDF716FA084B094A49
:104E50003F210948FDF710FA0020DEE7A086010097
:104E6000406A0010E86A0010D8680010F053001083
:104E700090520010AC520010E452001010B50C001B
:104E8000037A002B0DD0012B17D1437AFF2B0ED0C4
:104E900085225200835C591C8154C0188472012001
:104EA00010BD0F4B0F4A67210F48FDF7E5F90F4B77
:104EB0000C4A6A210C48FDF7DFF9FFF7A3FE0268F0
:104EC000136F9B07FCD503681A6F920701D51C610D
:104ED000E5E7074B074A2D210748FDF7CDF9C04606
:104EE000745300101C6B0010D8680010BC6A0010CE
:104EF0003C6B0010646B00107C690010F8B5040076
:104F00000D001600037A002B1AD0012B24D1437A0E
:104F1000FF2B1BD085235B00C35C80204000C01AA0
:104F2000904200D91000002282422ED2AE5C852130
:104F30004900635C5F1C6754E3189E720132F3E71B
:104F4000124B134A7B211348FDF796F9124B104A76
:104F50007E211048FDF790F9FFF754FE0700006826
:104F60000024B44210D2036F9B07FCD52A5D3B6836
:104F7000196F890702D51A610134F2E7074B084A15
:104F80002D210848FDF778F93000F8BD7453001062
:104F9000906B0010D8680010BC6A00103C6B0010C9
:104FA000646B00107C69001010B502490120FFF706
:104FB00015FE10BDFFFF000080235B000022C250E1
:104FC00070477047704780235B00C058704730B50A
:104FD000EFF3108272B680235B00C358FF2B08DC0E
:104FE0005D1C802464000551C15482F310880120A7
:104FF00030BD82F3108801204042F9E770B504000B
:1050000080235B00C258002A02DCFF25280070BD07
:1050100005781E00531E8351411C00F069F8A05909
:10502000241800232370F1E710B5802252000023DA
:1050300083500021FFF7A8FB10BD000010B5102021
:10504000FDF786F81120FDF783F81220FDF780F8B0
:105050001320FDF77DF8D024240680235B02A36291
:1050600080239B02A3628023DB02A36280231B03B5
:10507000A3621A20FDF76CF803211A20FDF736F819
:10508000002201211A20FDF749F81B20FDF760F8E6
:1050900003211B20FDF72AF8002201211B20FDF728
:1050A0003DF805490548FBF7C1FC1920FDF750F80C
:1050B00080239B04636210BDA0860100980300203A
:1050C000D0231B065B689B0105D4D0231B068022DE
:1050D00092045A617047D0231B06802292049A6181
:1050E000F8E7D0231B06802292045A617047000023
:1050F000F0B588420AD98B18984207D2531E002A6D
:1051000003D0CA5CC254013BFBD2F0BD0F2A0BD8BE
:105110000500561E002AF8D00023CC5C1A00EC547F
:1051200001339642F9D1F0E703270D003E00054315
:105130000C0003002E402F422BD11500103D2D09ED
:10514000AC462F013F1825681D6065685D60A56845
:105150009D60E5681034DD601D001033BD42F2D162
:1051600065460F230C2401352D01491913404519BB
:10517000144211D08C59AC5104369C1B032CF9D825
:10518000043B9B0801339B00ED18C91803231A4008
:10519000BFE70500561EBFE71A00BAE7094B10B576
:1051A0001C68094AA83420686168084BFFF732FA86
:1051B00001220023801859412060616048004008A6
:1051C00010BDC046540400202D7F954C2DF451583D
:1051D00010B583070AD00300032102E001330B421C
:1051E00005D01A78002AF9D1181A10BD03001968E1
:1051F0000C4A0D4C8A188A4322420FD15968094A39
:1052000004338A188A43224208D15968054A043374
:105210008A188A432242F1D000E001331A78002A2A
:10522000FBD1E1E7FFFEFEFE80808080F8B5C0463E
:1052300001B40248844601BC604700BFA5020020BB
:1052400001B40248844601BC604700BFF101002060
:1052500001B40248844601BC604700BF7D030020C2
:1052600001B40248844601BC604700BF7D030020B2
:1052700001B40248844601BC604700BFA901002078
:1052800001B40248844601BC604700BF61010020B0
:1052900075735F73696E63655F626F6F74203C3D09
:1052A00020494E5436345F4D41580000766F696492
:1052B000207570646174655F75735F73696E636593
:1052C0005F626F6F74286162736F6C7574655F7471
:1052D000696D655F742A2C2075696E7436345F744D
:1052E000290000002F566F6C756D65732F4578741B
:1052F0005353442F776F726B73706163652F7270B5
:10530000692D7069636F2F6475696E6F436F696E85
:105310004D696E65722F6C69627261726965732F77
:105320007069636F2D73646B2F7372632F636F6D7E
:105330006D6F6E2F7069636F5F626173652F696E49
:10534000636C7564652F7069636F2F747970657312
:105350002E6800006D6178696D756D206E756D62E7
:105360006572206F6620736C61766573206172656B
:10537000203130006D6F64655F20213D20556E61E6
:10538000737369676E65640073697A655F7420542E
:10539000776F576972653A3A617661696C61626CE0
:1053A00065282920636F6E73740000002F566F6CA0
:1053B000756D65732F4578745353442F776F726BF7
:1053C00073706163652F7270692D7069636F2F64EC
:1053D00075696E6F436F696E4D696E65722F757476
:1053E000696C732F2E2F576972652E6800000000BC
:1053F0007478416464726573735F203D3D204E4F45
:105400005F4144445245535300000000696E7420CC
:1054100054776F576972653A3A726561642829005A
:10542000253032642C2573003464623830383032D1
:1054300031646365653935376461386235663332A6
:1054400065326134366130636130633639313466D8
:105450002C3234653934386634666635613639380D
:1054600034666137623933336330636661363230B4
:105470006664646536633338622C32353030300A06
:1054800000000000526573756C743A2025730A00A1
:105490004D617374657220737461727473000000DF
:1054A00049324320427573207363616E6E696E6783
:1054B0002E2E00002564206F6620736C6176657364
:1054C000206172652064657465637465642E0A00EA
:1054D000446574656374656420736C6176652061EE
:1054E0006464726573735B25645D3A2025640A0009
:1054F0004A6F6220616C6C6F6361746564203D3E2D
:105500002025730A000000004F6E2D626F617264E7
:10551000204C45440000000042696E6172792066AB
:105520006F722074686520736C617665206F6620E9
:10553000746865206475696E6F20636F696E206D95
:10554000696E696E67206578616D706C652E205795
:10555000495A6E657420436F2C2E4C746400000011
:1055600006005250197CA0B6185500100900525080
:105570000000000208550010693263203D3D20699B
:10558000326330207C7C20693263203D3D206932CB
:10559000633100002F566F6C756D65732F457874FD
:1055A0005353442F776F726B73706163652F727002
:1055B000692D7069636F2F6475696E6F436F696ED3
:1055C0004D696E65722F6932635F736C6176652F0A
:1055D0006932635F736C6176652E630068616E6427
:1055E0006C657220213D204E554C4C00736C6176E9
:1055F000652D3E693263203D3D2069326300000025
:105600006932635F736C6176655F6465696E697446
:10561000000000007364615F74785F686F6C645FA2
:10562000636F756E74203C3D206C636E74202D207A
:10563000320000002F566F6C756D65732F457874BE
:105640005353442F776F726B73706163652F727061
:10565000692D7069636F2F6475696E6F436F696E32
:105660004D696E65722F6C69627261726965732F24
:105670007069636F2D73646B2F7372632F72703256
:105680005F636F6D6D6F6E2F6861726477617265B5
:105690005F6932632F6932632E6300006932635F92
:1056A0007365745F62617564726174650000000007
:1056B00064656C7461203E3D202D323034382026E4
:1056C000262064656C7461203C3D203230343620E5
:1056D000262620212864656C74612026203129004B
:1056E0002F566F6C756D65732F4578745353442F27
:1056F000776F726B73706163652F7270692D70695B
:10570000636F2F6475696E6F436F696E4D696E6567
:10571000722F6C69627261726965732F7069636F51
:105720002D73646B2F7372632F7270325F636F6DB2
:105730006D6F6E2F68617264776172655F697271F7
:105740002F6972712E630000212864656C746120DA
:105750003E3E20313175290063757272656E74208A
:105760003D3D205F5F756E68616E646C65645F755A
:105770007365725F697271207C7C206375727265DB
:105780006E74203D3D2068616E646C65720000009F
:105790006972715F68616E6465725F636861696E8A
:1057A0005F667265655F736C6F745F6865616420C6
:1057B0003E3D203000000000767461626C655F68D9
:1057C000616E646C6572203D3D205F5F756E68613F
:1057D0006E646C65645F757365725F6972710000F9
:1057E000212828282875696E747074725F74297670
:1057F0007461626C655F68616E646C657229202DEE
:1058000020282875696E747074725F7429697271CA
:105810005F68616E646C65725F636861696E5F7317
:105820006C6F747329202D2031292573697A656F77
:105830006628737472756374206972715F68616E33
:10584000646C65725F636861696E5F736C6F742905
:105850002900000030783163203D3D20282A696E00
:105860007374293E3E313175000000002165786374
:10587000657074696F6E207C7C20657863657074D8
:10588000696F6E203D3D206E756D202B20313600F6
:1058900066616C736500000069735F7368617265AF
:1058A000645F6972715F7261775F68616E646C6575
:1058B0007228736C6F745F68616E646C6572290026
:1058C000657863657074696F6E000000666F756E51
:1058D000640000006972715F6164645F7461696C87
:1058E0005F746F5F667265655F6C6973740000005A
:1058F000696E736572745F6272616E63685F616E18
:10590000645F6C696E6B00006972715F72656D6FC8
:1059100076655F68616E646C657200006D616B65D1
:105920005F6272616E6368007265736F6C76655F4B
:105930006272616E636800006972715F7365745FA3
:105940006578636C75736976655F68616E646C65B4
:105950007200000072742D3E616C61726D5F69644B
:10596000203D3D20696400002F566F6C756D657396
:105970002F4578745353442F776F726B7370616344
:10598000652F7270692D7069636F2F6475696E6F12
:10599000436F696E4D696E65722F6C6962726172D8
:1059A0006965732F7069636F2D73646B2F737263F6
:1059B0002F636F6D6D6F6E2F7069636F5F74696DAC
:1059C000652F74696D652E630000000069642026F0
:1059D00026206964203C3D20706F6F6C2D3E686509
:1059E00061702D3E6D61785F6E6F646573000000BD
:1059F000256C6C64202868692025303278290000E5
:105A00006964202626206964203C3D206865617019
:105A10002D3E6D61785F6E6F646573002F566F6CFD
:105A2000756D65732F4578745353442F776F726B80
:105A300073706163652F7270692D7069636F2F6475
:105A400075696E6F436F696E4D696E65722F6C6913
:105A5000627261726965732F7069636F2D73646B15
:105A60002F7372632F636F6D6D6F6E2F7069636F2D
:105A70005F7574696C2F696E636C7564652F7069EE
:105A8000636F2F7574696C2F70686561702E680084
:105A9000706172656E745F69640000006368696CB0
:105AA000645F696400000000706172656E745F6914
:105AB0006420213D206368696C645F6964000000B4
:105AC0002170685F636F6E7461696E735F6E6F647F
:105AD0006528706F6F6C2D3E686561702C20726553
